{
  "contractName": "CaseRegistration",
  "abi": [
    {
      "inputs": [
        {
          "internalType": "string",
          "name": "_caseId",
          "type": "string"
        },
        {
          "internalType": "string",
          "name": "_title",
          "type": "string"
        },
        {
          "internalType": "string",
          "name": "_desc",
          "type": "string"
        },
        {
          "internalType": "string",
          "name": "_investigator",
          "type": "string"
        },
        {
          "internalType": "string",
          "name": "_suspect",
          "type": "string"
        },
        {
          "internalType": "string",
          "name": "_digitalDevice",
          "type": "string"
        },
        {
          "internalType": "string",
          "name": "_timestamp",
          "type": "string"
        }
      ],
      "name": "newCase",
      "outputs": [],
      "stateMutability": "nonpayable",
      "type": "function"
    },
    {
      "inputs": [
        {
          "internalType": "string",
          "name": "_caseId",
          "type": "string"
        },
        {
          "internalType": "string",
          "name": "_analystType",
          "type": "string"
        },
        {
          "internalType": "string",
          "name": "_analystName",
          "type": "string"
        }
      ],
      "name": "assignTask",
      "outputs": [],
      "stateMutability": "nonpayable",
      "type": "function"
    },
    {
      "inputs": [
        {
          "internalType": "string",
          "name": "_caseId",
          "type": "string"
        },
        {
          "internalType": "string",
          "name": "_analystType",
          "type": "string"
        },
        {
          "internalType": "string",
          "name": "_status",
          "type": "string"
        },
        {
          "internalType": "string",
          "name": "_accepted",
          "type": "string"
        },
        {
          "internalType": "string",
          "name": "_timestamp",
          "type": "string"
        }
      ],
      "name": "updateTaskStatus",
      "outputs": [],
      "stateMutability": "nonpayable",
      "type": "function"
    },
    {
      "inputs": [
        {
          "internalType": "string",
          "name": "_caseId",
          "type": "string"
        },
        {
          "internalType": "string",
          "name": "_analystName",
          "type": "string"
        },
        {
          "internalType": "string",
          "name": "_FA_Results",
          "type": "string"
        },
        {
          "internalType": "string",
          "name": "_timestamp",
          "type": "string"
        }
      ],
      "name": "updateCaseByForensic",
      "outputs": [],
      "stateMutability": "nonpayable",
      "type": "function"
    },
    {
      "inputs": [
        {
          "internalType": "string",
          "name": "_caseId",
          "type": "string"
        },
        {
          "internalType": "string",
          "name": "_analystName",
          "type": "string"
        },
        {
          "internalType": "string",
          "name": "_SA_Results",
          "type": "string"
        },
        {
          "internalType": "string",
          "name": "_timestamp",
          "type": "string"
        }
      ],
      "name": "updateCaseByStego",
      "outputs": [],
      "stateMutability": "nonpayable",
      "type": "function"
    },
    {
      "inputs": [
        {
          "internalType": "string",
          "name": "_caseId",
          "type": "string"
        },
        {
          "internalType": "string",
          "name": "_report",
          "type": "string"
        },
        {
          "internalType": "string",
          "name": "_timestamp",
          "type": "string"
        }
      ],
      "name": "closeCase",
      "outputs": [],
      "stateMutability": "nonpayable",
      "type": "function"
    },
    {
      "inputs": [
        {
          "internalType": "string",
          "name": "_caseId",
          "type": "string"
        }
      ],
      "name": "viewCase",
      "outputs": [
        {
          "components": [
            {
              "internalType": "string",
              "name": "caseId",
              "type": "string"
            },
            {
              "internalType": "string",
              "name": "caseTitle",
              "type": "string"
            },
            {
              "internalType": "string",
              "name": "description",
              "type": "string"
            },
            {
              "internalType": "string",
              "name": "suspect",
              "type": "string"
            },
            {
              "internalType": "string",
              "name": "digitalDevice",
              "type": "string"
            },
            {
              "internalType": "string",
              "name": "investigator",
              "type": "string"
            },
            {
              "internalType": "enum CaseRegistration.CaseStatus",
              "name": "status",
              "type": "uint8"
            },
            {
              "internalType": "string",
              "name": "forensicAnalyst",
              "type": "string"
            },
            {
              "internalType": "string",
              "name": "FA_Results",
              "type": "string"
            },
            {
              "internalType": "string",
              "name": "stegoAnalyst",
              "type": "string"
            },
            {
              "internalType": "string",
              "name": "SA_Results",
              "type": "string"
            },
            {
              "internalType": "string",
              "name": "report",
              "type": "string"
            },
            {
              "internalType": "string",
              "name": "newCaseTime",
              "type": "string"
            },
            {
              "internalType": "string",
              "name": "forensicUpdateTime",
              "type": "string"
            },
            {
              "internalType": "string",
              "name": "stegoUpdateTime",
              "type": "string"
            },
            {
              "internalType": "string",
              "name": "closeCaseTime",
              "type": "string"
            },
            {
              "internalType": "string",
              "name": "forensicTaskAssigned",
              "type": "string"
            },
            {
              "internalType": "string",
              "name": "stegoTaskAssigned",
              "type": "string"
            },
            {
              "internalType": "string",
              "name": "forensicTaskAccepted",
              "type": "string"
            },
            {
              "internalType": "string",
              "name": "stegoTaskAccepted",
              "type": "string"
            },
            {
              "internalType": "string",
              "name": "forensicStatus",
              "type": "string"
            },
            {
              "internalType": "string",
              "name": "stegoStatus",
              "type": "string"
            }
          ],
          "internalType": "struct CaseRegistration.Case",
          "name": "",
          "type": "tuple"
        }
      ],
      "stateMutability": "view",
      "type": "function",
      "constant": true
    },
    {
      "inputs": [],
      "name": "viewAllCases",
      "outputs": [
        {
          "components": [
            {
              "internalType": "string",
              "name": "caseId",
              "type": "string"
            },
            {
              "internalType": "string",
              "name": "caseTitle",
              "type": "string"
            },
            {
              "internalType": "string",
              "name": "description",
              "type": "string"
            },
            {
              "internalType": "string",
              "name": "suspect",
              "type": "string"
            },
            {
              "internalType": "string",
              "name": "digitalDevice",
              "type": "string"
            },
            {
              "internalType": "string",
              "name": "investigator",
              "type": "string"
            },
            {
              "internalType": "enum CaseRegistration.CaseStatus",
              "name": "status",
              "type": "uint8"
            },
            {
              "internalType": "string",
              "name": "forensicAnalyst",
              "type": "string"
            },
            {
              "internalType": "string",
              "name": "FA_Results",
              "type": "string"
            },
            {
              "internalType": "string",
              "name": "stegoAnalyst",
              "type": "string"
            },
            {
              "internalType": "string",
              "name": "SA_Results",
              "type": "string"
            },
            {
              "internalType": "string",
              "name": "report",
              "type": "string"
            },
            {
              "internalType": "string",
              "name": "newCaseTime",
              "type": "string"
            },
            {
              "internalType": "string",
              "name": "forensicUpdateTime",
              "type": "string"
            },
            {
              "internalType": "string",
              "name": "stegoUpdateTime",
              "type": "string"
            },
            {
              "internalType": "string",
              "name": "closeCaseTime",
              "type": "string"
            },
            {
              "internalType": "string",
              "name": "forensicTaskAssigned",
              "type": "string"
            },
            {
              "internalType": "string",
              "name": "stegoTaskAssigned",
              "type": "string"
            },
            {
              "internalType": "string",
              "name": "forensicTaskAccepted",
              "type": "string"
            },
            {
              "internalType": "string",
              "name": "stegoTaskAccepted",
              "type": "string"
            },
            {
              "internalType": "string",
              "name": "forensicStatus",
              "type": "string"
            },
            {
              "internalType": "string",
              "name": "stegoStatus",
              "type": "string"
            }
          ],
          "internalType": "struct CaseRegistration.Case[]",
          "name": "",
          "type": "tuple[]"
        }
      ],
      "stateMutability": "view",
      "type": "function",
      "constant": true
    },
    {
      "inputs": [
        {
          "internalType": "enum CaseRegistration.CaseStatus",
          "name": "_status",
          "type": "uint8"
        }
      ],
      "name": "viewTypeCases",
      "outputs": [
        {
          "components": [
            {
              "internalType": "string",
              "name": "caseId",
              "type": "string"
            },
            {
              "internalType": "string",
              "name": "caseTitle",
              "type": "string"
            },
            {
              "internalType": "string",
              "name": "description",
              "type": "string"
            },
            {
              "internalType": "string",
              "name": "suspect",
              "type": "string"
            },
            {
              "internalType": "string",
              "name": "digitalDevice",
              "type": "string"
            },
            {
              "internalType": "string",
              "name": "investigator",
              "type": "string"
            },
            {
              "internalType": "enum CaseRegistration.CaseStatus",
              "name": "status",
              "type": "uint8"
            },
            {
              "internalType": "string",
              "name": "forensicAnalyst",
              "type": "string"
            },
            {
              "internalType": "string",
              "name": "FA_Results",
              "type": "string"
            },
            {
              "internalType": "string",
              "name": "stegoAnalyst",
              "type": "string"
            },
            {
              "internalType": "string",
              "name": "SA_Results",
              "type": "string"
            },
            {
              "internalType": "string",
              "name": "report",
              "type": "string"
            },
            {
              "internalType": "string",
              "name": "newCaseTime",
              "type": "string"
            },
            {
              "internalType": "string",
              "name": "forensicUpdateTime",
              "type": "string"
            },
            {
              "internalType": "string",
              "name": "stegoUpdateTime",
              "type": "string"
            },
            {
              "internalType": "string",
              "name": "closeCaseTime",
              "type": "string"
            },
            {
              "internalType": "string",
              "name": "forensicTaskAssigned",
              "type": "string"
            },
            {
              "internalType": "string",
              "name": "stegoTaskAssigned",
              "type": "string"
            },
            {
              "internalType": "string",
              "name": "forensicTaskAccepted",
              "type": "string"
            },
            {
              "internalType": "string",
              "name": "stegoTaskAccepted",
              "type": "string"
            },
            {
              "internalType": "string",
              "name": "forensicStatus",
              "type": "string"
            },
            {
              "internalType": "string",
              "name": "stegoStatus",
              "type": "string"
            }
          ],
          "internalType": "struct CaseRegistration.Case[]",
          "name": "",
          "type": "tuple[]"
        }
      ],
      "stateMutability": "view",
      "type": "function",
      "constant": true
    }
  ],
  "bytecode": "0x608060405234801561001057600080fd5b50615003806100206000396000f3fe608060405234801561001057600080fd5b50600436106100935760003560e01c80638257f6be116100665780638257f6be14610108578063cdf9688914610126578063d574e32714610142578063e569190f1461015e578063ef7050441461018e57610093565b806326c161d61461009857806327660a4d146100b457806334064ed9146100d05780635b01b65e146100ec575b600080fd5b6100b260048036038101906100ad91906143ec565b6101be565b005b6100ce60048036038101906100c9919061423a565b610905565b005b6100ea60048036038101906100e591906141a3565b610b49565b005b610106600480360381019061010191906141a3565b610c9a565b005b610110610ee0565b60405161011d9190614c65565b60405180910390f35b610140600480360381019061013b91906142fd565b611cc2565b005b61015c6004803603810190610157919061423a565b611f7c565b005b61017860048036038101906101739190614162565b6121c0565b6040516101859190614ce7565b60405180910390f35b6101a860048036038101906101a39190614139565b612eea565b6040516101b59190614c65565b60405180910390f35b600080886040516101cf9190614c37565b908152602001604051809103902060000180546101eb90614e61565b90501461022d576040517f08c379a000000000000000000000000000000000000000000000000000000000815260040161022490614c87565b60405180910390fd5b604051806102c0016040528088815260200187815260200186815260200184815260200183815260200185815260200160006002811115610297577f4e487b7100000000000000000000000000000000000000000000000000000000600052602160045260246000fd5b81526020016040518060400160405280600381526020017f4e2f41000000000000000000000000000000000000000000000000000000000081525081526020016040518060400160405280600381526020017f4e2f41000000000000000000000000000000000000000000000000000000000081525081526020016040518060400160405280600381526020017f4e2f41000000000000000000000000000000000000000000000000000000000081525081526020016040518060400160405280600381526020017f4e2f41000000000000000000000000000000000000000000000000000000000081525081526020016040518060400160405280600381526020017f4e2f41000000000000000000000000000000000000000000000000000000000081525081526020018281526020016040518060400160405280600381526020017f4e2f41000000000000000000000000000000000000000000000000000000000081525081526020016040518060400160405280600381526020017f4e2f41000000000000000000000000000000000000000000000000000000000081525081526020016040518060400160405280600381526020017f4e2f41000000000000000000000000000000000000000000000000000000000081525081526020016040518060400160405280600181526020017f2d0000000000000000000000000000000000000000000000000000000000000081525081526020016040518060400160405280600181526020017f2d0000000000000000000000000000000000000000000000000000000000000081525081526020016040518060400160405280600181526020017f2d0000000000000000000000000000000000000000000000000000000000000081525081526020016040518060400160405280600181526020017f2d0000000000000000000000000000000000000000000000000000000000000081525081526020016040518060400160405280600181526020017f2d0000000000000000000000000000000000000000000000000000000000000081525081526020016040518060400160405280600181526020017f2d000000000000000000000000000000000000000000000000000000000000008152508152506000886040516105ea9190614c37565b90815260200160405180910390206000820151816000019080519060200190610614929190613f3a565b506020820151816001019080519060200190610631929190613f3a565b50604082015181600201908051906020019061064e929190613f3a565b50606082015181600301908051906020019061066b929190613f3a565b506080820151816004019080519060200190610688929190613f3a565b5060a08201518160050190805190602001906106a5929190613f3a565b5060c08201518160060160006101000a81548160ff021916908360028111156106f7577f4e487b7100000000000000000000000000000000000000000000000000000000600052602160045260246000fd5b021790555060e0820151816007019080519060200190610718929190613f3a565b50610100820151816008019080519060200190610736929190613f3a565b50610120820151816009019080519060200190610754929190613f3a565b5061014082015181600a019080519060200190610772929190613f3a565b5061016082015181600b019080519060200190610790929190613f3a565b5061018082015181600c0190805190602001906107ae929190613f3a565b506101a082015181600d0190805190602001906107cc929190613f3a565b506101c082015181600e0190805190602001906107ea929190613f3a565b506101e082015181600f019080519060200190610808929190613f3a565b50610200820151816010019080519060200190610826929190613f3a565b50610220820151816011019080519060200190610844929190613f3a565b50610240820151816012019080519060200190610862929190613f3a565b50610260820151816013019080519060200190610880929190613f3a565b5061028082015181601401908051906020019061089e929190613f3a565b506102a08201518160150190805190602001906108bc929190613f3a565b509050506001879080600181540180825580915050600190039060005260206000200160009091909190915090805190602001906108fb929190613f3a565b5050505050505050565b600080856040516109169190614c37565b9081526020016040518091039020600001805461093290614e61565b90501415610975576040517f08c379a000000000000000000000000000000000000000000000000000000000815260040161096c90614cc7565b60405180910390fd5b610a286000856040516109889190614c37565b908152602001604051809103902060070180546109a490614e61565b80601f01602080910402602001604051908101604052809291908181526020018280546109d090614e61565b8015610a1d5780601f106109f257610100808354040283529160200191610a1d565b820191906000526020600020905b815481529060010190602001808311610a0057829003601f168201915b505050505084613ee1565b610a67576040517f08c379a0000000000000000000000000000000000000000000000000000000008152600401610a5e90614ca7565b60405180910390fd5b81600085604051610a789190614c37565b90815260200160405180910390206008019080519060200190610a9c929190613f3a565b5080600085604051610aae9190614c37565b9081526020016040518091039020600d019080519060200190610ad2929190613f3a565b506001600085604051610ae59190614c37565b908152602001604051809103902060060160006101000a81548160ff02191690836002811115610b3e577f4e487b7100000000000000000000000000000000000000000000000000000000600052602160045260246000fd5b021790555050505050565b60008084604051610b5a9190614c37565b90815260200160405180910390206000018054610b7690614e61565b90501415610bb9576040517f08c379a0000000000000000000000000000000000000000000000000000000008152600401610bb090614cc7565b60405180910390fd5b81600084604051610bca9190614c37565b9081526020016040518091039020600b019080519060200190610bee929190613f3a565b506002600084604051610c019190614c37565b908152602001604051809103902060060160006101000a81548160ff02191690836002811115610c5a577f4e487b7100000000000000000000000000000000000000000000000000000000600052602160045260246000fd5b021790555080600084604051610c709190614c37565b9081526020016040518091039020600f019080519060200190610c94929190613f3a565b50505050565b60008084604051610cab9190614c37565b90815260200160405180910390206000018054610cc790614e61565b90501415610d0a576040517f08c379a0000000000000000000000000000000000000000000000000000000008152600401610d0190614cc7565b60405180910390fd5b610d49826040518060400160405280600881526020017f666f72656e736963000000000000000000000000000000000000000000000000815250613ee1565b15610df45780600084604051610d5f9190614c37565b90815260200160405180910390206007019080519060200190610d83929190613f3a565b506040518060400160405280600381526020017f5965730000000000000000000000000000000000000000000000000000000000815250600084604051610dca9190614c37565b90815260200160405180910390206010019080519060200190610dee929190613f3a565b50610edb565b610e33826040518060400160405280600581526020017f737465676f000000000000000000000000000000000000000000000000000000815250613ee1565b15610eda5780600084604051610e499190614c37565b90815260200160405180910390206009019080519060200190610e6d929190613f3a565b506040518060400160405280600381526020017f5965730000000000000000000000000000000000000000000000000000000000815250600084604051610eb49190614c37565b90815260200160405180910390206011019080519060200190610ed8929190613f3a565b505b5b505050565b6060600060018054905067ffffffffffffffff811115610f29577f4e487b7100000000000000000000000000000000000000000000000000000000600052604160045260246000fd5b604051908082528060200260200182016040528015610f6257816020015b610f4f613fc0565b815260200190600190039081610f475790505b50905060005b600180549050811015611cba57600060018281548110610fb1577f4e487b7100000000000000000000000000000000000000000000000000000000600052603260045260246000fd5b90600052602060002001604051610fc89190614c4e565b9081526020016040518091039020604051806102c0016040529081600082018054610ff290614e61565b80601f016020809104026020016040519081016040528092919081815260200182805461101e90614e61565b801561106b5780601f106110405761010080835404028352916020019161106b565b820191906000526020600020905b81548152906001019060200180831161104e57829003601f168201915b5050505050815260200160018201805461108490614e61565b80601f01602080910402602001604051908101604052809291908181526020018280546110b090614e61565b80156110fd5780601f106110d2576101008083540402835291602001916110fd565b820191906000526020600020905b8154815290600101906020018083116110e057829003601f168201915b5050505050815260200160028201805461111690614e61565b80601f016020809104026020016040519081016040528092919081815260200182805461114290614e61565b801561118f5780601f106111645761010080835404028352916020019161118f565b820191906000526020600020905b81548152906001019060200180831161117257829003601f168201915b505050505081526020016003820180546111a890614e61565b80601f01602080910402602001604051908101604052809291908181526020018280546111d490614e61565b80156112215780601f106111f657610100808354040283529160200191611221565b820191906000526020600020905b81548152906001019060200180831161120457829003601f168201915b5050505050815260200160048201805461123a90614e61565b80601f016020809104026020016040519081016040528092919081815260200182805461126690614e61565b80156112b35780601f10611288576101008083540402835291602001916112b3565b820191906000526020600020905b81548152906001019060200180831161129657829003601f168201915b505050505081526020016005820180546112cc90614e61565b80601f01602080910402602001604051908101604052809291908181526020018280546112f890614e61565b80156113455780601f1061131a57610100808354040283529160200191611345565b820191906000526020600020905b81548152906001019060200180831161132857829003601f168201915b505050505081526020016006820160009054906101000a900460ff166002811115611399577f4e487b7100000000000000000000000000000000000000000000000000000000600052602160045260246000fd5b60028111156113d1577f4e487b7100000000000000000000000000000000000000000000000000000000600052602160045260246000fd5b81526020016007820180546113e590614e61565b80601f016020809104026020016040519081016040528092919081815260200182805461141190614e61565b801561145e5780601f106114335761010080835404028352916020019161145e565b820191906000526020600020905b81548152906001019060200180831161144157829003601f168201915b5050505050815260200160088201805461147790614e61565b80601f01602080910402602001604051908101604052809291908181526020018280546114a390614e61565b80156114f05780601f106114c5576101008083540402835291602001916114f0565b820191906000526020600020905b8154815290600101906020018083116114d357829003601f168201915b5050505050815260200160098201805461150990614e61565b80601f016020809104026020016040519081016040528092919081815260200182805461153590614e61565b80156115825780601f1061155757610100808354040283529160200191611582565b820191906000526020600020905b81548152906001019060200180831161156557829003601f168201915b50505050508152602001600a8201805461159b90614e61565b80601f01602080910402602001604051908101604052809291908181526020018280546115c790614e61565b80156116145780601f106115e957610100808354040283529160200191611614565b820191906000526020600020905b8154815290600101906020018083116115f757829003601f168201915b50505050508152602001600b8201805461162d90614e61565b80601f016020809104026020016040519081016040528092919081815260200182805461165990614e61565b80156116a65780601f1061167b576101008083540402835291602001916116a6565b820191906000526020600020905b81548152906001019060200180831161168957829003601f168201915b50505050508152602001600c820180546116bf90614e61565b80601f01602080910402602001604051908101604052809291908181526020018280546116eb90614e61565b80156117385780601f1061170d57610100808354040283529160200191611738565b820191906000526020600020905b81548152906001019060200180831161171b57829003601f168201915b50505050508152602001600d8201805461175190614e61565b80601f016020809104026020016040519081016040528092919081815260200182805461177d90614e61565b80156117ca5780601f1061179f576101008083540402835291602001916117ca565b820191906000526020600020905b8154815290600101906020018083116117ad57829003601f168201915b50505050508152602001600e820180546117e390614e61565b80601f016020809104026020016040519081016040528092919081815260200182805461180f90614e61565b801561185c5780601f106118315761010080835404028352916020019161185c565b820191906000526020600020905b81548152906001019060200180831161183f57829003601f168201915b50505050508152602001600f8201805461187590614e61565b80601f01602080910402602001604051908101604052809291908181526020018280546118a190614e61565b80156118ee5780601f106118c3576101008083540402835291602001916118ee565b820191906000526020600020905b8154815290600101906020018083116118d157829003601f168201915b5050505050815260200160108201805461190790614e61565b80601f016020809104026020016040519081016040528092919081815260200182805461193390614e61565b80156119805780601f1061195557610100808354040283529160200191611980565b820191906000526020600020905b81548152906001019060200180831161196357829003601f168201915b5050505050815260200160118201805461199990614e61565b80601f01602080910402602001604051908101604052809291908181526020018280546119c590614e61565b8015611a125780601f106119e757610100808354040283529160200191611a12565b820191906000526020600020905b8154815290600101906020018083116119f557829003601f168201915b50505050508152602001601282018054611a2b90614e61565b80601f0160208091040260200160405190810160405280929190818152602001828054611a5790614e61565b8015611aa45780601f10611a7957610100808354040283529160200191611aa4565b820191906000526020600020905b815481529060010190602001808311611a8757829003601f168201915b50505050508152602001601382018054611abd90614e61565b80601f0160208091040260200160405190810160405280929190818152602001828054611ae990614e61565b8015611b365780601f10611b0b57610100808354040283529160200191611b36565b820191906000526020600020905b815481529060010190602001808311611b1957829003601f168201915b50505050508152602001601482018054611b4f90614e61565b80601f0160208091040260200160405190810160405280929190818152602001828054611b7b90614e61565b8015611bc85780601f10611b9d57610100808354040283529160200191611bc8565b820191906000526020600020905b815481529060010190602001808311611bab57829003601f168201915b50505050508152602001601582018054611be190614e61565b80601f0160208091040260200160405190810160405280929190818152602001828054611c0d90614e61565b8015611c5a5780601f10611c2f57610100808354040283529160200191611c5a565b820191906000526020600020905b815481529060010190602001808311611c3d57829003601f168201915b505050505081525050828281518110611c9c577f4e487b7100000000000000000000000000000000000000000000000000000000600052603260045260246000fd5b60200260200101819052508080611cb290614e93565b915050610f68565b508091505090565b60008086604051611cd39190614c37565b90815260200160405180910390206000018054611cef90614e61565b90501415611d32576040517f08c379a0000000000000000000000000000000000000000000000000000000008152600401611d2990614cc7565b60405180910390fd5b611d71846040518060400160405280600881526020017f666f72656e736963000000000000000000000000000000000000000000000000815250613ee1565b15611e1d5781600086604051611d879190614c37565b90815260200160405180910390206012019080519060200190611dab929190613f3a565b5082600086604051611dbd9190614c37565b90815260200160405180910390206014019080519060200190611de1929190613f3a565b5080600086604051611df39190614c37565b9081526020016040518091039020600d019080519060200190611e17929190613f3a565b50611f05565b611e5c846040518060400160405280600581526020017f737465676f000000000000000000000000000000000000000000000000000000815250613ee1565b15611f045781600086604051611e729190614c37565b90815260200160405180910390206013019080519060200190611e96929190613f3a565b5082600086604051611ea89190614c37565b90815260200160405180910390206015019080519060200190611ecc929190613f3a565b5080600086604051611ede9190614c37565b9081526020016040518091039020600e019080519060200190611f02929190613f3a565b505b5b6001600086604051611f179190614c37565b908152602001604051809103902060060160006101000a81548160ff02191690836002811115611f70577f4e487b7100000000000000000000000000000000000000000000000000000000600052602160045260246000fd5b02179055505050505050565b60008085604051611f8d9190614c37565b90815260200160405180910390206000018054611fa990614e61565b90501415611fec576040517f08c379a0000000000000000000000000000000000000000000000000000000008152600401611fe390614cc7565b60405180910390fd5b61209f600085604051611fff9190614c37565b9081526020016040518091039020600901805461201b90614e61565b80601f016020809104026020016040519081016040528092919081815260200182805461204790614e61565b80156120945780601f1061206957610100808354040283529160200191612094565b820191906000526020600020905b81548152906001019060200180831161207757829003601f168201915b505050505084613ee1565b6120de576040517f08c379a00000000000000000000000000000000000000000000000000000000081526004016120d590614ca7565b60405180910390fd5b816000856040516120ef9190614c37565b9081526020016040518091039020600a019080519060200190612113929190613f3a565b50806000856040516121259190614c37565b9081526020016040518091039020600e019080519060200190612149929190613f3a565b50600160008560405161215c9190614c37565b908152602001604051809103902060060160006101000a81548160ff021916908360028111156121b5577f4e487b7100000000000000000000000000000000000000000000000000000000600052602160045260246000fd5b021790555050505050565b6121c8613fc0565b600080836040516121d99190614c37565b908152602001604051809103902060000180546121f590614e61565b90501415612238576040517f08c379a000000000000000000000000000000000000000000000000000000000815260040161222f90614cc7565b60405180910390fd5b6000826040516122489190614c37565b9081526020016040518091039020604051806102c001604052908160008201805461227290614e61565b80601f016020809104026020016040519081016040528092919081815260200182805461229e90614e61565b80156122eb5780601f106122c0576101008083540402835291602001916122eb565b820191906000526020600020905b8154815290600101906020018083116122ce57829003601f168201915b5050505050815260200160018201805461230490614e61565b80601f016020809104026020016040519081016040528092919081815260200182805461233090614e61565b801561237d5780601f106123525761010080835404028352916020019161237d565b820191906000526020600020905b81548152906001019060200180831161236057829003601f168201915b5050505050815260200160028201805461239690614e61565b80601f01602080910402602001604051908101604052809291908181526020018280546123c290614e61565b801561240f5780601f106123e45761010080835404028352916020019161240f565b820191906000526020600020905b8154815290600101906020018083116123f257829003601f168201915b5050505050815260200160038201805461242890614e61565b80601f016020809104026020016040519081016040528092919081815260200182805461245490614e61565b80156124a15780601f10612476576101008083540402835291602001916124a1565b820191906000526020600020905b81548152906001019060200180831161248457829003601f168201915b505050505081526020016004820180546124ba90614e61565b80601f01602080910402602001604051908101604052809291908181526020018280546124e690614e61565b80156125335780601f1061250857610100808354040283529160200191612533565b820191906000526020600020905b81548152906001019060200180831161251657829003601f168201915b5050505050815260200160058201805461254c90614e61565b80601f016020809104026020016040519081016040528092919081815260200182805461257890614e61565b80156125c55780601f1061259a576101008083540402835291602001916125c5565b820191906000526020600020905b8154815290600101906020018083116125a857829003601f168201915b505050505081526020016006820160009054906101000a900460ff166002811115612619577f4e487b7100000000000000000000000000000000000000000000000000000000600052602160045260246000fd5b6002811115612651577f4e487b7100000000000000000000000000000000000000000000000000000000600052602160045260246000fd5b815260200160078201805461266590614e61565b80601f016020809104026020016040519081016040528092919081815260200182805461269190614e61565b80156126de5780601f106126b3576101008083540402835291602001916126de565b820191906000526020600020905b8154815290600101906020018083116126c157829003601f168201915b505050505081526020016008820180546126f790614e61565b80601f016020809104026020016040519081016040528092919081815260200182805461272390614e61565b80156127705780601f1061274557610100808354040283529160200191612770565b820191906000526020600020905b81548152906001019060200180831161275357829003601f168201915b5050505050815260200160098201805461278990614e61565b80601f01602080910402602001604051908101604052809291908181526020018280546127b590614e61565b80156128025780601f106127d757610100808354040283529160200191612802565b820191906000526020600020905b8154815290600101906020018083116127e557829003601f168201915b50505050508152602001600a8201805461281b90614e61565b80601f016020809104026020016040519081016040528092919081815260200182805461284790614e61565b80156128945780601f1061286957610100808354040283529160200191612894565b820191906000526020600020905b81548152906001019060200180831161287757829003601f168201915b50505050508152602001600b820180546128ad90614e61565b80601f01602080910402602001604051908101604052809291908181526020018280546128d990614e61565b80156129265780601f106128fb57610100808354040283529160200191612926565b820191906000526020600020905b81548152906001019060200180831161290957829003601f168201915b50505050508152602001600c8201805461293f90614e61565b80601f016020809104026020016040519081016040528092919081815260200182805461296b90614e61565b80156129b85780601f1061298d576101008083540402835291602001916129b8565b820191906000526020600020905b81548152906001019060200180831161299b57829003601f168201915b50505050508152602001600d820180546129d190614e61565b80601f01602080910402602001604051908101604052809291908181526020018280546129fd90614e61565b8015612a4a5780601f10612a1f57610100808354040283529160200191612a4a565b820191906000526020600020905b815481529060010190602001808311612a2d57829003601f168201915b50505050508152602001600e82018054612a6390614e61565b80601f0160208091040260200160405190810160405280929190818152602001828054612a8f90614e61565b8015612adc5780601f10612ab157610100808354040283529160200191612adc565b820191906000526020600020905b815481529060010190602001808311612abf57829003601f168201915b50505050508152602001600f82018054612af590614e61565b80601f0160208091040260200160405190810160405280929190818152602001828054612b2190614e61565b8015612b6e5780601f10612b4357610100808354040283529160200191612b6e565b820191906000526020600020905b815481529060010190602001808311612b5157829003601f168201915b50505050508152602001601082018054612b8790614e61565b80601f0160208091040260200160405190810160405280929190818152602001828054612bb390614e61565b8015612c005780601f10612bd557610100808354040283529160200191612c00565b820191906000526020600020905b815481529060010190602001808311612be357829003601f168201915b50505050508152602001601182018054612c1990614e61565b80601f0160208091040260200160405190810160405280929190818152602001828054612c4590614e61565b8015612c925780601f10612c6757610100808354040283529160200191612c92565b820191906000526020600020905b815481529060010190602001808311612c7557829003601f168201915b50505050508152602001601282018054612cab90614e61565b80601f0160208091040260200160405190810160405280929190818152602001828054612cd790614e61565b8015612d245780601f10612cf957610100808354040283529160200191612d24565b820191906000526020600020905b815481529060010190602001808311612d0757829003601f168201915b50505050508152602001601382018054612d3d90614e61565b80601f0160208091040260200160405190810160405280929190818152602001828054612d6990614e61565b8015612db65780601f10612d8b57610100808354040283529160200191612db6565b820191906000526020600020905b815481529060010190602001808311612d9957829003601f168201915b50505050508152602001601482018054612dcf90614e61565b80601f0160208091040260200160405190810160405280929190818152602001828054612dfb90614e61565b8015612e485780601f10612e1d57610100808354040283529160200191612e48565b820191906000526020600020905b815481529060010190602001808311612e2b57829003601f168201915b50505050508152602001601582018054612e6190614e61565b80601f0160208091040260200160405190810160405280929190818152602001828054612e8d90614e61565b8015612eda5780601f10612eaf57610100808354040283529160200191612eda565b820191906000526020600020905b815481529060010190602001808311612ebd57829003601f168201915b5050505050815250509050919050565b60606000805b60018054905081101561300857836002811115612f36577f4e487b7100000000000000000000000000000000000000000000000000000000600052602160045260246000fd5b600060018381548110612f72577f4e487b7100000000000000000000000000000000000000000000000000000000600052603260045260246000fd5b90600052602060002001604051612f899190614c4e565b908152602001604051809103902060060160009054906101000a900460ff166002811115612fe0577f4e487b7100000000000000000000000000000000000000000000000000000000600052602160045260246000fd5b1415612ff5578180612ff190614e93565b9250505b808061300090614e93565b915050612ef0565b5060008167ffffffffffffffff81111561304b577f4e487b7100000000000000000000000000000000000000000000000000000000600052604160045260246000fd5b60405190808252806020026020018201604052801561308457816020015b613071613fc0565b8152602001906001900390816130695790505b5090506000805b600180549050811015613ed5578560028111156130d1577f4e487b7100000000000000000000000000000000000000000000000000000000600052602160045260246000fd5b60006001838154811061310d577f4e487b7100000000000000000000000000000000000000000000000000000000600052603260045260246000fd5b906000526020600020016040516131249190614c4e565b908152602001604051809103902060060160009054906101000a900460ff16600281111561317b577f4e487b7100000000000000000000000000000000000000000000000000000000600052602160045260246000fd5b1415613ec2576000600182815481106131bd577f4e487b7100000000000000000000000000000000000000000000000000000000600052603260045260246000fd5b906000526020600020016040516131d49190614c4e565b9081526020016040518091039020604051806102c00160405290816000820180546131fe90614e61565b80601f016020809104026020016040519081016040528092919081815260200182805461322a90614e61565b80156132775780601f1061324c57610100808354040283529160200191613277565b820191906000526020600020905b81548152906001019060200180831161325a57829003601f168201915b5050505050815260200160018201805461329090614e61565b80601f01602080910402602001604051908101604052809291908181526020018280546132bc90614e61565b80156133095780601f106132de57610100808354040283529160200191613309565b820191906000526020600020905b8154815290600101906020018083116132ec57829003601f168201915b5050505050815260200160028201805461332290614e61565b80601f016020809104026020016040519081016040528092919081815260200182805461334e90614e61565b801561339b5780601f106133705761010080835404028352916020019161339b565b820191906000526020600020905b81548152906001019060200180831161337e57829003601f168201915b505050505081526020016003820180546133b490614e61565b80601f01602080910402602001604051908101604052809291908181526020018280546133e090614e61565b801561342d5780601f106134025761010080835404028352916020019161342d565b820191906000526020600020905b81548152906001019060200180831161341057829003601f168201915b5050505050815260200160048201805461344690614e61565b80601f016020809104026020016040519081016040528092919081815260200182805461347290614e61565b80156134bf5780601f10613494576101008083540402835291602001916134bf565b820191906000526020600020905b8154815290600101906020018083116134a257829003601f168201915b505050505081526020016005820180546134d890614e61565b80601f016020809104026020016040519081016040528092919081815260200182805461350490614e61565b80156135515780601f1061352657610100808354040283529160200191613551565b820191906000526020600020905b81548152906001019060200180831161353457829003601f168201915b505050505081526020016006820160009054906101000a900460ff1660028111156135a5577f4e487b7100000000000000000000000000000000000000000000000000000000600052602160045260246000fd5b60028111156135dd577f4e487b7100000000000000000000000000000000000000000000000000000000600052602160045260246000fd5b81526020016007820180546135f190614e61565b80601f016020809104026020016040519081016040528092919081815260200182805461361d90614e61565b801561366a5780601f1061363f5761010080835404028352916020019161366a565b820191906000526020600020905b81548152906001019060200180831161364d57829003601f168201915b5050505050815260200160088201805461368390614e61565b80601f01602080910402602001604051908101604052809291908181526020018280546136af90614e61565b80156136fc5780601f106136d1576101008083540402835291602001916136fc565b820191906000526020600020905b8154815290600101906020018083116136df57829003601f168201915b5050505050815260200160098201805461371590614e61565b80601f016020809104026020016040519081016040528092919081815260200182805461374190614e61565b801561378e5780601f106137635761010080835404028352916020019161378e565b820191906000526020600020905b81548152906001019060200180831161377157829003601f168201915b50505050508152602001600a820180546137a790614e61565b80601f01602080910402602001604051908101604052809291908181526020018280546137d390614e61565b80156138205780601f106137f557610100808354040283529160200191613820565b820191906000526020600020905b81548152906001019060200180831161380357829003601f168201915b50505050508152602001600b8201805461383990614e61565b80601f016020809104026020016040519081016040528092919081815260200182805461386590614e61565b80156138b25780601f10613887576101008083540402835291602001916138b2565b820191906000526020600020905b81548152906001019060200180831161389557829003601f168201915b50505050508152602001600c820180546138cb90614e61565b80601f01602080910402602001604051908101604052809291908181526020018280546138f790614e61565b80156139445780601f1061391957610100808354040283529160200191613944565b820191906000526020600020905b81548152906001019060200180831161392757829003601f168201915b50505050508152602001600d8201805461395d90614e61565b80601f016020809104026020016040519081016040528092919081815260200182805461398990614e61565b80156139d65780601f106139ab576101008083540402835291602001916139d6565b820191906000526020600020905b8154815290600101906020018083116139b957829003601f168201915b50505050508152602001600e820180546139ef90614e61565b80601f0160208091040260200160405190810160405280929190818152602001828054613a1b90614e61565b8015613a685780601f10613a3d57610100808354040283529160200191613a68565b820191906000526020600020905b815481529060010190602001808311613a4b57829003601f168201915b50505050508152602001600f82018054613a8190614e61565b80601f0160208091040260200160405190810160405280929190818152602001828054613aad90614e61565b8015613afa5780601f10613acf57610100808354040283529160200191613afa565b820191906000526020600020905b815481529060010190602001808311613add57829003601f168201915b50505050508152602001601082018054613b1390614e61565b80601f0160208091040260200160405190810160405280929190818152602001828054613b3f90614e61565b8015613b8c5780601f10613b6157610100808354040283529160200191613b8c565b820191906000526020600020905b815481529060010190602001808311613b6f57829003601f168201915b50505050508152602001601182018054613ba590614e61565b80601f0160208091040260200160405190810160405280929190818152602001828054613bd190614e61565b8015613c1e5780601f10613bf357610100808354040283529160200191613c1e565b820191906000526020600020905b815481529060010190602001808311613c0157829003601f168201915b50505050508152602001601282018054613c3790614e61565b80601f0160208091040260200160405190810160405280929190818152602001828054613c6390614e61565b8015613cb05780601f10613c8557610100808354040283529160200191613cb0565b820191906000526020600020905b815481529060010190602001808311613c9357829003601f168201915b50505050508152602001601382018054613cc990614e61565b80601f0160208091040260200160405190810160405280929190818152602001828054613cf590614e61565b8015613d425780601f10613d1757610100808354040283529160200191613d42565b820191906000526020600020905b815481529060010190602001808311613d2557829003601f168201915b50505050508152602001601482018054613d5b90614e61565b80601f0160208091040260200160405190810160405280929190818152602001828054613d8790614e61565b8015613dd45780601f10613da957610100808354040283529160200191613dd4565b820191906000526020600020905b815481529060010190602001808311613db757829003601f168201915b50505050508152602001601582018054613ded90614e61565b80601f0160208091040260200160405190810160405280929190818152602001828054613e1990614e61565b8015613e665780601f10613e3b57610100808354040283529160200191613e66565b820191906000526020600020905b815481529060010190602001808311613e4957829003601f168201915b505050505081525050838381518110613ea8577f4e487b7100000000000000000000000000000000000000000000000000000000600052603260045260246000fd5b60200260200101819052508180613ebe90614e93565b9250505b8080613ecd90614e93565b91505061308b565b50819350505050919050565b600081604051602001613ef49190614c37565b6040516020818303038152906040528051906020012083604051602001613f1b9190614c37565b6040516020818303038152906040528051906020012014905092915050565b828054613f4690614e61565b90600052602060002090601f016020900481019282613f685760008555613faf565b82601f10613f8157805160ff1916838001178555613faf565b82800160010185558215613faf579182015b82811115613fae578251825591602001919060010190613f93565b5b509050613fbc919061409f565b5090565b604051806102c0016040528060608152602001606081526020016060815260200160608152602001606081526020016060815260200160006002811115614030577f4e487b7100000000000000000000000000000000000000000000000000000000600052602160045260246000fd5b81526020016060815260200160608152602001606081526020016060815260200160608152602001606081526020016060815260200160608152602001606081526020016060815260200160608152602001606081526020016060815260200160608152602001606081525090565b5b808211156140b85760008160009055506001016140a0565b5090565b60006140cf6140ca84614d3a565b614d09565b9050828152602081018484840111156140e757600080fd5b6140f2848285614e1f565b509392505050565b60008135905061410981614fbd565b92915050565b600082601f83011261412057600080fd5b81356141308482602086016140bc565b91505092915050565b60006020828403121561414b57600080fd5b6000614159848285016140fa565b91505092915050565b60006020828403121561417457600080fd5b600082013567ffffffffffffffff81111561418e57600080fd5b61419a8482850161410f565b91505092915050565b6000806000606084860312156141b857600080fd5b600084013567ffffffffffffffff8111156141d257600080fd5b6141de8682870161410f565b935050602084013567ffffffffffffffff8111156141fb57600080fd5b6142078682870161410f565b925050604084013567ffffffffffffffff81111561422457600080fd5b6142308682870161410f565b9150509250925092565b6000806000806080858703121561425057600080fd5b600085013567ffffffffffffffff81111561426a57600080fd5b6142768782880161410f565b945050602085013567ffffffffffffffff81111561429357600080fd5b61429f8782880161410f565b935050604085013567ffffffffffffffff8111156142bc57600080fd5b6142c88782880161410f565b925050606085013567ffffffffffffffff8111156142e557600080fd5b6142f18782880161410f565b91505092959194509250565b600080600080600060a0868803121561431557600080fd5b600086013567ffffffffffffffff81111561432f57600080fd5b61433b8882890161410f565b955050602086013567ffffffffffffffff81111561435857600080fd5b6143648882890161410f565b945050604086013567ffffffffffffffff81111561438157600080fd5b61438d8882890161410f565b935050606086013567ffffffffffffffff8111156143aa57600080fd5b6143b68882890161410f565b925050608086013567ffffffffffffffff8111156143d357600080fd5b6143df8882890161410f565b9150509295509295909350565b600080600080600080600060e0888a03121561440757600080fd5b600088013567ffffffffffffffff81111561442157600080fd5b61442d8a828b0161410f565b975050602088013567ffffffffffffffff81111561444a57600080fd5b6144568a828b0161410f565b965050604088013567ffffffffffffffff81111561447357600080fd5b61447f8a828b0161410f565b955050606088013567ffffffffffffffff81111561449c57600080fd5b6144a88a828b0161410f565b945050608088013567ffffffffffffffff8111156144c557600080fd5b6144d18a828b0161410f565b93505060a088013567ffffffffffffffff8111156144ee57600080fd5b6144fa8a828b0161410f565b92505060c088013567ffffffffffffffff81111561451757600080fd5b6145238a828b0161410f565b91505092959891949750929550565b600061453e8383614773565b905092915050565b600061455182614d8f565b61455b8185614db2565b93508360208202850161456d85614d6a565b8060005b858110156145a9578484038952815161458a8582614532565b945061459583614da5565b925060208a01995050600181019050614571565b50829750879550505050505092915050565b6145c481614e0d565b82525050565b60006145d582614d9a565b6145df8185614dc3565b93506145ef818560208601614e2e565b6145f881614f98565b840191505092915050565b600061460e82614d9a565b6146188185614de5565b9350614628818560208601614e2e565b80840191505092915050565b6000815461464181614e61565b61464b8186614de5565b945060018216600081146146665760018114614677576146aa565b60ff198316865281860193506146aa565b61468085614d7a565b60005b838110156146a257815481890152600182019150602081019050614683565b838801955050505b50505092915050565b60006146c0601683614dd4565b91507f4361736520494420616c726561647920657869737473000000000000000000006000830152602082019050919050565b6000614700601483614dd4565b91507f556e617574686f72697a656420616e616c7973740000000000000000000000006000830152602082019050919050565b6000614740600e83614dd4565b91507f43617365206e6f7420666f756e640000000000000000000000000000000000006000830152602082019050919050565b60006102c083016000830151848203600086015261479182826145ca565b915050602083015184820360208601526147ab82826145ca565b915050604083015184820360408601526147c582826145ca565b915050606083015184820360608601526147df82826145ca565b915050608083015184820360808601526147f982826145ca565b91505060a083015184820360a086015261481382826145ca565b91505060c083015161482860c08601826145bb565b5060e083015184820360e086015261484082826145ca565b91505061010083015184820361010086015261485c82826145ca565b91505061012083015184820361012086015261487882826145ca565b91505061014083015184820361014086015261489482826145ca565b9150506101608301518482036101608601526148b082826145ca565b9150506101808301518482036101808601526148cc82826145ca565b9150506101a08301518482036101a08601526148e882826145ca565b9150506101c08301518482036101c086015261490482826145ca565b9150506101e08301518482036101e086015261492082826145ca565b91505061020083015184820361020086015261493c82826145ca565b91505061022083015184820361022086015261495882826145ca565b91505061024083015184820361024086015261497482826145ca565b91505061026083015184820361026086015261499082826145ca565b9150506102808301518482036102808601526149ac82826145ca565b9150506102a08301518482036102a08601526149c882826145ca565b9150508091505092915050565b60006102c08301600083015184820360008601526149f382826145ca565b91505060208301518482036020860152614a0d82826145ca565b91505060408301518482036040860152614a2782826145ca565b91505060608301518482036060860152614a4182826145ca565b91505060808301518482036080860152614a5b82826145ca565b91505060a083015184820360a0860152614a7582826145ca565b91505060c0830151614a8a60c08601826145bb565b5060e083015184820360e0860152614aa282826145ca565b915050610100830151848203610100860152614abe82826145ca565b915050610120830151848203610120860152614ada82826145ca565b915050610140830151848203610140860152614af682826145ca565b915050610160830151848203610160860152614b1282826145ca565b915050610180830151848203610180860152614b2e82826145ca565b9150506101a08301518482036101a0860152614b4a82826145ca565b9150506101c08301518482036101c0860152614b6682826145ca565b9150506101e08301518482036101e0860152614b8282826145ca565b915050610200830151848203610200860152614b9e82826145ca565b915050610220830151848203610220860152614bba82826145ca565b915050610240830151848203610240860152614bd682826145ca565b915050610260830151848203610260860152614bf282826145ca565b915050610280830151848203610280860152614c0e82826145ca565b9150506102a08301518482036102a0860152614c2a82826145ca565b9150508091505092915050565b6000614c438284614603565b915081905092915050565b6000614c5a8284614634565b915081905092915050565b60006020820190508181036000830152614c7f8184614546565b905092915050565b60006020820190508181036000830152614ca0816146b3565b9050919050565b60006020820190508181036000830152614cc0816146f3565b9050919050565b60006020820190508181036000830152614ce081614733565b9050919050565b60006020820190508181036000830152614d0181846149d5565b905092915050565b6000604051905081810181811067ffffffffffffffff82111715614d3057614d2f614f69565b5b8060405250919050565b600067ffffffffffffffff821115614d5557614d54614f69565b5b601f19601f8301169050602081019050919050565b6000819050602082019050919050565b60008190508160005260206000209050919050565b600081519050919050565b600081519050919050565b6000602082019050919050565b600082825260208201905092915050565b600082825260208201905092915050565b600082825260208201905092915050565b600081905092915050565b6000819050614dfe82614fa9565b919050565b6000819050919050565b6000614e1882614df0565b9050919050565b82818337600083830152505050565b60005b83811015614e4c578082015181840152602081019050614e31565b83811115614e5b576000848401525b50505050565b60006002820490506001821680614e7957607f821691505b60208210811415614e8d57614e8c614f3a565b5b50919050565b6000614e9e82614e03565b91507fffffffffffffffffffffffffffffffffffffffffffffffffffffffffffffffff821415614ed157614ed0614edc565b5b600182019050919050565b7f4e487b7100000000000000000000000000000000000000000000000000000000600052601160045260246000fd5b7f4e487b7100000000000000000000000000000000000000000000000000000000600052602160045260246000fd5b7f4e487b7100000000000000000000000000000000000000000000000000000000600052602260045260246000fd5b7f4e487b7100000000000000000000000000000000000000000000000000000000600052604160045260246000fd5b6000601f19601f8301169050919050565b60038110614fba57614fb9614f0b565b5b50565b60038110614fca57600080fd5b5056fea2646970667358221220dd6d4b2c24de1d98839355a2e7d923914b7b7db776b7e582c5910206f9dd08e364736f6c63430008000033",
  "immutableReferences": {},
  "source": "// SPDX-License-Identifier: MIT \r\npragma solidity ^0.8.0;\r\n\r\ncontract CaseRegistration {\r\n    enum CaseStatus { Open, Investigating, Closed }\r\n\r\n    struct Case {\r\n        string caseId;\r\n        string caseTitle;\r\n        string description;\r\n        string suspect;\r\n        string digitalDevice;\r\n        string investigator;\r\n        CaseStatus status;\r\n        string forensicAnalyst;\r\n        string FA_Results;\r\n        string stegoAnalyst;\r\n        string SA_Results;\r\n        string report;\r\n        string newCaseTime;\r\n        string forensicUpdateTime;\r\n        string stegoUpdateTime;\r\n        string closeCaseTime;\r\n\r\n        // New fields\r\n        string forensicTaskAssigned;\r\n        string stegoTaskAssigned;\r\n        string forensicTaskAccepted;\r\n        string stegoTaskAccepted;\r\n        string forensicStatus;\r\n        string stegoStatus;\r\n    }\r\n\r\n    mapping(string => Case) private cases;\r\n    string[] private caseIds;\r\n\r\n    function newCase(\r\n        string memory _caseId, \r\n        string memory _title,\r\n        string memory _desc,\r\n        string memory _investigator,\r\n        string memory _suspect,\r\n        string memory _digitalDevice,\r\n        string memory _timestamp\r\n    ) public {\r\n        require(bytes(cases[_caseId].caseId).length == 0, \"Case ID already exists\");\r\n\r\n        cases[_caseId] = Case({\r\n            caseId: _caseId,\r\n            caseTitle: _title,\r\n            description: _desc,\r\n            suspect: _suspect,\r\n            digitalDevice: _digitalDevice,\r\n            investigator: _investigator,\r\n            status: CaseStatus.Open,\r\n            forensicAnalyst: \"N/A\",\r\n            FA_Results: \"N/A\",\r\n            stegoAnalyst: \"N/A\",\r\n            SA_Results: \"N/A\",\r\n            report: \"N/A\",\r\n            newCaseTime: _timestamp,\r\n            forensicUpdateTime: \"N/A\",\r\n            stegoUpdateTime: \"N/A\",\r\n            closeCaseTime: \"N/A\",\r\n\r\n            // Initialize new fields to \"-\"\r\n            forensicTaskAssigned: \"-\", // Changed to \"-\"\r\n            stegoTaskAssigned: \"-\",    // Changed to \"-\"\r\n            forensicTaskAccepted: \"-\", // Changed to \"-\"\r\n            stegoTaskAccepted: \"-\",    // Changed to \"-\"\r\n            forensicStatus: \"-\",        // Changed to \"-\"\r\n            stegoStatus: \"-\"           // Changed to \"-\"\r\n        });\r\n\r\n        caseIds.push(_caseId);\r\n    }\r\n\r\n    function assignTask(\r\n        string memory _caseId,\r\n        string memory _analystType, // \"forensic\" or \"stego\"\r\n        string memory _analystName\r\n    ) public {\r\n        require(bytes(cases[_caseId].caseId).length != 0, \"Case not found\");\r\n\r\n        if (compareStrings(_analystType, \"forensic\")) {\r\n            cases[_caseId].forensicAnalyst = _analystName;\r\n            cases[_caseId].forensicTaskAssigned = \"Yes\";\r\n        } else if (compareStrings(_analystType, \"stego\")) {\r\n            cases[_caseId].stegoAnalyst = _analystName;\r\n            cases[_caseId].stegoTaskAssigned = \"Yes\";\r\n        }\r\n    }\r\n\r\n    function updateTaskStatus(\r\n        string memory _caseId,\r\n        string memory _analystType, // \"forensic\" or \"stego\"\r\n        string memory _status,\r\n        string memory _accepted,\r\n        string memory _timestamp\r\n    ) public {\r\n        require(bytes(cases[_caseId].caseId).length != 0, \"Case not found\");\r\n\r\n        if (compareStrings(_analystType, \"forensic\")) {\r\n            cases[_caseId].forensicTaskAccepted = _accepted;\r\n            cases[_caseId].forensicStatus = _status;\r\n            cases[_caseId].forensicUpdateTime = _timestamp;\r\n        } else if (compareStrings(_analystType, \"stego\")) {\r\n            cases[_caseId].stegoTaskAccepted = _accepted;\r\n            cases[_caseId].stegoStatus = _status;\r\n            cases[_caseId].stegoUpdateTime = _timestamp;\r\n        }\r\n\r\n        cases[_caseId].status = CaseStatus.Investigating;\r\n    }\r\n\r\n   function updateCaseByForensic(\r\n    string memory _caseId, \r\n    string memory _analystName,\r\n    string memory _FA_Results,\r\n    string memory _timestamp\r\n) public {\r\n    require(bytes(cases[_caseId].caseId).length != 0, \"Case not found\");\r\n    require(compareStrings(cases[_caseId].forensicAnalyst, _analystName), \"Unauthorized analyst\");\r\n\r\n    cases[_caseId].FA_Results = _FA_Results;\r\n    cases[_caseId].forensicUpdateTime = _timestamp;\r\n    cases[_caseId].status = CaseStatus.Investigating;\r\n}\r\n\r\nfunction updateCaseByStego(\r\n    string memory _caseId, \r\n    string memory _analystName,\r\n    string memory _SA_Results,\r\n    string memory _timestamp\r\n) public {\r\n    require(bytes(cases[_caseId].caseId).length != 0, \"Case not found\");\r\n    require(compareStrings(cases[_caseId].stegoAnalyst, _analystName), \"Unauthorized analyst\");\r\n\r\n    cases[_caseId].SA_Results = _SA_Results;\r\n    cases[_caseId].stegoUpdateTime = _timestamp;\r\n    cases[_caseId].status = CaseStatus.Investigating;\r\n}\r\n\r\n\r\n    function closeCase(string memory _caseId, string memory _report, string memory _timestamp) public {\r\n        require(bytes(cases[_caseId].caseId).length != 0, \"Case not found\");\r\n\r\n        cases[_caseId].report = _report;\r\n        cases[_caseId].status = CaseStatus.Closed;\r\n        cases[_caseId].closeCaseTime = _timestamp;\r\n    }\r\n\r\n    function viewCase(string memory _caseId) public view returns (Case memory) {\r\n        require(bytes(cases[_caseId].caseId).length != 0, \"Case not found\");\r\n        return cases[_caseId];\r\n    }\r\n\r\n    function viewAllCases() public view returns (Case[] memory) {\r\n        Case[] memory allCases = new Case[](caseIds.length);\r\n        for (uint i = 0; i < caseIds.length; i++) {\r\n            allCases[i] = cases[caseIds[i]];\r\n        }\r\n        return allCases;\r\n    }\r\n\r\n    function viewTypeCases(CaseStatus _status) public view returns (Case[] memory) {\r\n        uint count = 0;\r\n        for (uint i = 0; i < caseIds.length; i++) {\r\n            if (cases[caseIds[i]].status == _status) {\r\n                count++;\r\n            }\r\n        }\r\n\r\n        Case[] memory filteredCases = new Case[](count);\r\n        uint index = 0;\r\n        for (uint i = 0; i < caseIds.length; i++) {\r\n            if (cases[caseIds[i]].status == _status) {\r\n                filteredCases[index] = cases[caseIds[i]];\r\n                index++;\r\n            }\r\n        }\r\n        return filteredCases;\r\n    }\r\n\r\n    // Utility function\r\n    function compareStrings(string memory a, string memory b) internal pure returns (bool) {\r\n        return (keccak256(abi.encodePacked(a)) == keccak256(abi.encodePacked(b)));\r\n    }\r\n}",
  "sourcePath": "D:\\TraceForensics\\contracts\\CaseRegistration.sol",
  "compiler": {
    "name": "solc",
    "version": "0.8.0+commit.c7dfd78e.Emscripten.clang"
  },
  "schemaVersion": "3.4.16",
  "updatedAt": "2025-04-09T00:35:02.184Z",
  "networkType": "ethereum",
  "devdoc": {
    "kind": "dev",
    "methods": {},
    "version": 1
  },
  "userdoc": {
    "kind": "user",
    "methods": {},
    "version": 1
  }
}