{
  "contractName": "Users",
  "abi": [
    {
      "anonymous": false,
      "inputs": [
        {
          "indexed": false,
          "internalType": "string",
          "name": "userID",
          "type": "string"
        },
        {
          "indexed": false,
          "internalType": "string",
          "name": "email",
          "type": "string"
        },
        {
          "indexed": false,
          "internalType": "string",
          "name": "password",
          "type": "string"
        },
        {
          "indexed": false,
          "internalType": "string",
          "name": "loggedTime",
          "type": "string"
        }
      ],
      "name": "UserLoggedIn",
      "type": "event"
    },
    {
      "anonymous": false,
      "inputs": [
        {
          "indexed": false,
          "internalType": "string",
          "name": "userID",
          "type": "string"
        },
        {
          "indexed": false,
          "internalType": "string",
          "name": "username",
          "type": "string"
        },
        {
          "indexed": false,
          "internalType": "string",
          "name": "email",
          "type": "string"
        },
        {
          "indexed": false,
          "internalType": "string",
          "name": "phone",
          "type": "string"
        },
        {
          "indexed": false,
          "internalType": "string",
          "name": "password",
          "type": "string"
        },
        {
          "indexed": false,
          "internalType": "string",
          "name": "role",
          "type": "string"
        },
        {
          "indexed": false,
          "internalType": "string",
          "name": "registeredTime",
          "type": "string"
        }
      ],
      "name": "UserRegistered",
      "type": "event"
    },
    {
      "inputs": [
        {
          "internalType": "string",
          "name": "_userID",
          "type": "string"
        },
        {
          "internalType": "string",
          "name": "_username",
          "type": "string"
        },
        {
          "internalType": "string",
          "name": "_email",
          "type": "string"
        },
        {
          "internalType": "string",
          "name": "_phone",
          "type": "string"
        },
        {
          "internalType": "string",
          "name": "_password",
          "type": "string"
        },
        {
          "internalType": "string",
          "name": "_role",
          "type": "string"
        },
        {
          "internalType": "string",
          "name": "_registeredTime",
          "type": "string"
        }
      ],
      "name": "registerUser",
      "outputs": [],
      "stateMutability": "nonpayable",
      "type": "function"
    },
    {
      "inputs": [
        {
          "internalType": "string",
          "name": "_identifier",
          "type": "string"
        },
        {
          "internalType": "string",
          "name": "_password",
          "type": "string"
        },
        {
          "internalType": "string",
          "name": "_loggedTime",
          "type": "string"
        }
      ],
      "name": "loginUser",
      "outputs": [],
      "stateMutability": "nonpayable",
      "type": "function"
    },
    {
      "inputs": [],
      "name": "viewRegisteredUsers",
      "outputs": [
        {
          "components": [
            {
              "internalType": "string",
              "name": "userID",
              "type": "string"
            },
            {
              "internalType": "string",
              "name": "username",
              "type": "string"
            },
            {
              "internalType": "string",
              "name": "email",
              "type": "string"
            },
            {
              "internalType": "string",
              "name": "phone",
              "type": "string"
            },
            {
              "internalType": "string",
              "name": "password",
              "type": "string"
            },
            {
              "internalType": "string",
              "name": "role",
              "type": "string"
            },
            {
              "internalType": "string",
              "name": "registeredTime",
              "type": "string"
            }
          ],
          "internalType": "struct Users.User[]",
          "name": "",
          "type": "tuple[]"
        }
      ],
      "stateMutability": "view",
      "type": "function",
      "constant": true
    },
    {
      "inputs": [],
      "name": "viewLoggedUsers",
      "outputs": [
        {
          "components": [
            {
              "internalType": "string",
              "name": "userID",
              "type": "string"
            },
            {
              "internalType": "string",
              "name": "email",
              "type": "string"
            },
            {
              "internalType": "string",
              "name": "password",
              "type": "string"
            },
            {
              "internalType": "string",
              "name": "loggedTime",
              "type": "string"
            }
          ],
          "internalType": "struct Users.LoginRecord[]",
          "name": "",
          "type": "tuple[]"
        }
      ],
      "stateMutability": "view",
      "type": "function",
      "constant": true
    }
  ],
  "bytecode": "0x608060405234801561001057600080fd5b50611c12806100206000396000f3fe608060405234801561001057600080fd5b506004361061004c5760003560e01c80633e6c3ab7146100515780634ae8af091461006d5780638b394e3914610089578063e4f71d48146100a7575b600080fd5b61006b60048036038101906100669190611097565b6100c5565b005b6100876004803603810190610082919061112e565b61046f565b005b610091610888565b60405161009e91906117f6565b60405180910390f35b6100af610ce5565b6040516100bc91906117d4565b60405180910390f35b6060600080856040516100d891906117bd565b908152602001604051809103902060000180546100f490611b3b565b905014610103578390506101ad565b60018460405161011391906117bd565b9081526020016040518091039020805461012c90611b3b565b80601f016020809104026020016040519081016040528092919081815260200182805461015890611b3b565b80156101a55780601f1061017a576101008083540402835291602001916101a5565b820191906000526020600020905b81548152906001019060200180831161018857829003601f168201915b505050505090505b600080826040516101be91906117bd565b908152602001604051809103902060000180546101da90611b3b565b9050141561021d576040517f08c379a000000000000000000000000000000000000000000000000000000000815260040161021490611919565b60405180910390fd5b828051906020012060008260405161023591906117bd565b908152602001604051809103902060040160405161025391906117a6565b60405180910390201461029b576040517f08c379a000000000000000000000000000000000000000000000000000000000815260040161029290611959565b60405180910390fd5b600060405180608001604052808381526020016000846040516102be91906117bd565b908152602001604051809103902060020180546102da90611b3b565b80601f016020809104026020016040519081016040528092919081815260200182805461030690611b3b565b80156103535780601f1061032857610100808354040283529160200191610353565b820191906000526020600020905b81548152906001019060200180831161033657829003601f168201915b50505050508152602001858152602001848152509050600381908060018154018082558091505060019003906000526020600020906004020160009091909190915060008201518160000190805190602001906103b1929190610f8c565b5060208201518160010190805190602001906103ce929190610f8c565b5060408201518160020190805190602001906103eb929190610f8c565b506060820151816003019080519060200190610408929190610f8c565b5050507fa20b8a0cba1e3c547239295632f4e1c94f27b9e0dc52cfa1f009293bb0a12c378260008460405161043d91906117bd565b9081526020016040518091039020600201868660405161046094939291906118b8565b60405180910390a15050505050565b6000808860405161048091906117bd565b9081526020016040518091039020600001805461049c90611b3b565b9050146104de576040517f08c379a00000000000000000000000000000000000000000000000000000000081526004016104d590611999565b60405180910390fd5b60006001866040516104f091906117bd565b9081526020016040518091039020805461050990611b3b565b90501461054b576040517f08c379a000000000000000000000000000000000000000000000000000000000815260040161054290611979565b60405180910390fd5b600060028560405161055d91906117bd565b9081526020016040518091039020805461057690611b3b565b9050146105b8576040517f08c379a00000000000000000000000000000000000000000000000000000000081526004016105af90611939565b60405180910390fd5b60006040518060e001604052808981526020018881526020018781526020018681526020018581526020018481526020018381525090508060008960405161060091906117bd565b9081526020016040518091039020600082015181600001908051906020019061062a929190610f8c565b506020820151816001019080519060200190610647929190610f8c565b506040820151816002019080519060200190610664929190610f8c565b506060820151816003019080519060200190610681929190610f8c565b50608082015181600401908051906020019061069e929190610f8c565b5060a08201518160050190805190602001906106bb929190610f8c565b5060c08201518160060190805190602001906106d8929190610f8c565b50905050876001876040516106ed91906117bd565b9081526020016040518091039020908051906020019061070e929190610f8c565b508760028660405161072091906117bd565b90815260200160405180910390209080519060200190610741929190610f8c565b506004819080600181540180825580915050600190039060005260206000209060070201600090919091909150600082015181600001908051906020019061078a929190610f8c565b5060208201518160010190805190602001906107a7929190610f8c565b5060408201518160020190805190602001906107c4929190610f8c565b5060608201518160030190805190602001906107e1929190610f8c565b5060808201518160040190805190602001906107fe929190610f8c565b5060a082015181600501908051906020019061081b929190610f8c565b5060c0820151816006019080519060200190610838929190610f8c565b5050507fa31d63b0928768cddbb3d79258a033fb44d1cef47a5eccd612702f39cc6b61f2888888888888886040516108769796959493929190611818565b60405180910390a15050505050505050565b60606004805480602002602001604051908101604052809291908181526020016000905b82821015610cdc57838290600052602060002090600702016040518060e00160405290816000820180546108df90611b3b565b80601f016020809104026020016040519081016040528092919081815260200182805461090b90611b3b565b80156109585780601f1061092d57610100808354040283529160200191610958565b820191906000526020600020905b81548152906001019060200180831161093b57829003601f168201915b5050505050815260200160018201805461097190611b3b565b80601f016020809104026020016040519081016040528092919081815260200182805461099d90611b3b565b80156109ea5780601f106109bf576101008083540402835291602001916109ea565b820191906000526020600020905b8154815290600101906020018083116109cd57829003601f168201915b50505050508152602001600282018054610a0390611b3b565b80601f0160208091040260200160405190810160405280929190818152602001828054610a2f90611b3b565b8015610a7c5780601f10610a5157610100808354040283529160200191610a7c565b820191906000526020600020905b815481529060010190602001808311610a5f57829003601f168201915b50505050508152602001600382018054610a9590611b3b565b80601f0160208091040260200160405190810160405280929190818152602001828054610ac190611b3b565b8015610b0e5780601f10610ae357610100808354040283529160200191610b0e565b820191906000526020600020905b815481529060010190602001808311610af157829003601f168201915b50505050508152602001600482018054610b2790611b3b565b80601f0160208091040260200160405190810160405280929190818152602001828054610b5390611b3b565b8015610ba05780601f10610b7557610100808354040283529160200191610ba0565b820191906000526020600020905b815481529060010190602001808311610b8357829003601f168201915b50505050508152602001600582018054610bb990611b3b565b80601f0160208091040260200160405190810160405280929190818152602001828054610be590611b3b565b8015610c325780601f10610c0757610100808354040283529160200191610c32565b820191906000526020600020905b815481529060010190602001808311610c1557829003601f168201915b50505050508152602001600682018054610c4b90611b3b565b80601f0160208091040260200160405190810160405280929190818152602001828054610c7790611b3b565b8015610cc45780601f10610c9957610100808354040283529160200191610cc4565b820191906000526020600020905b815481529060010190602001808311610ca757829003601f168201915b505050505081525050815260200190600101906108ac565b50505050905090565b60606003805480602002602001604051908101604052809291908181526020016000905b82821015610f835783829060005260206000209060040201604051806080016040529081600082018054610d3c90611b3b565b80601f0160208091040260200160405190810160405280929190818152602001828054610d6890611b3b565b8015610db55780601f10610d8a57610100808354040283529160200191610db5565b820191906000526020600020905b815481529060010190602001808311610d9857829003601f168201915b50505050508152602001600182018054610dce90611b3b565b80601f0160208091040260200160405190810160405280929190818152602001828054610dfa90611b3b565b8015610e475780601f10610e1c57610100808354040283529160200191610e47565b820191906000526020600020905b815481529060010190602001808311610e2a57829003601f168201915b50505050508152602001600282018054610e6090611b3b565b80601f0160208091040260200160405190810160405280929190818152602001828054610e8c90611b3b565b8015610ed95780601f10610eae57610100808354040283529160200191610ed9565b820191906000526020600020905b815481529060010190602001808311610ebc57829003601f168201915b50505050508152602001600382018054610ef290611b3b565b80601f0160208091040260200160405190810160405280929190818152602001828054610f1e90611b3b565b8015610f6b5780601f10610f4057610100808354040283529160200191610f6b565b820191906000526020600020905b815481529060010190602001808311610f4e57829003601f168201915b50505050508152505081526020019060010190610d09565b50505050905090565b828054610f9890611b3b565b90600052602060002090601f016020900481019282610fba5760008555611001565b82601f10610fd357805160ff1916838001178555611001565b82800160010185558215611001579182015b82811115611000578251825591602001919060010190610fe5565b5b50905061100e9190611012565b5090565b5b8082111561102b576000816000905550600101611013565b5090565b600061104261103d846119ea565b6119b9565b90508281526020810184848401111561105a57600080fd5b611065848285611af9565b509392505050565b600082601f83011261107e57600080fd5b813561108e84826020860161102f565b91505092915050565b6000806000606084860312156110ac57600080fd5b600084013567ffffffffffffffff8111156110c657600080fd5b6110d28682870161106d565b935050602084013567ffffffffffffffff8111156110ef57600080fd5b6110fb8682870161106d565b925050604084013567ffffffffffffffff81111561111857600080fd5b6111248682870161106d565b9150509250925092565b600080600080600080600060e0888a03121561114957600080fd5b600088013567ffffffffffffffff81111561116357600080fd5b61116f8a828b0161106d565b975050602088013567ffffffffffffffff81111561118c57600080fd5b6111988a828b0161106d565b965050604088013567ffffffffffffffff8111156111b557600080fd5b6111c18a828b0161106d565b955050606088013567ffffffffffffffff8111156111de57600080fd5b6111ea8a828b0161106d565b945050608088013567ffffffffffffffff81111561120757600080fd5b6112138a828b0161106d565b93505060a088013567ffffffffffffffff81111561123057600080fd5b61123c8a828b0161106d565b92505060c088013567ffffffffffffffff81111561125957600080fd5b6112658a828b0161106d565b91505092959891949750929550565b60006112808383611668565b905092915050565b600061129483836116e0565b905092915050565b60006112a782611a64565b6112b18185611a9f565b9350836020820285016112c385611a1a565b8060005b858110156112ff57848403895281516112e08582611274565b94506112eb83611a85565b925060208a019950506001810190506112c7565b50829750879550505050505092915050565b600061131c82611a6f565b6113268185611ab0565b93508360208202850161133885611a2a565b8060005b8581101561137457848403895281516113558582611288565b945061136083611a92565b925060208a0199505060018101905061133c565b50829750879550505050505092915050565b6000815461139381611b3b565b61139d8186611ac1565b945060018216600081146113b857600181146113c9576113fc565b60ff198316865281860193506113fc565b6113d285611a3a565b60005b838110156113f4578154818901526001820191506020810190506113d5565b838801955050505b50505092915050565b600061141082611a7a565b61141a8185611acc565b935061142a818560208601611b08565b61143381611bcb565b840191505092915050565b600061144982611a7a565b6114538185611add565b9350611463818560208601611b08565b61146c81611bcb565b840191505092915050565b600061148282611a7a565b61148c8185611aee565b935061149c818560208601611b08565b80840191505092915050565b600081546114b581611b3b565b6114bf8186611add565b945060018216600081146114da57600181146114ec5761151f565b60ff198316865260208601935061151f565b6114f585611a4f565b60005b83811015611517578154818901526001820191506020810190506114f8565b808801955050505b50505092915050565b6000611535600e83611add565b91507f55736572206e6f7420666f756e640000000000000000000000000000000000006000830152602082019050919050565b6000611575601f83611add565b91507f50686f6e65206e756d62657220616c72656164792072656769737465726564006000830152602082019050919050565b60006115b5601083611add565b91507f496e76616c69642070617373776f7264000000000000000000000000000000006000830152602082019050919050565b60006115f5601883611add565b91507f456d61696c20616c7265616479207265676973746572656400000000000000006000830152602082019050919050565b6000611635601683611add565b91507f5573657220494420616c726561647920657869737473000000000000000000006000830152602082019050919050565b600060808301600083015184820360008601526116858282611405565b9150506020830151848203602086015261169f8282611405565b915050604083015184820360408601526116b98282611405565b915050606083015184820360608601526116d38282611405565b9150508091505092915050565b600060e08301600083015184820360008601526116fd8282611405565b915050602083015184820360208601526117178282611405565b915050604083015184820360408601526117318282611405565b9150506060830151848203606086015261174b8282611405565b915050608083015184820360808601526117658282611405565b91505060a083015184820360a086015261177f8282611405565b91505060c083015184820360c08601526117998282611405565b9150508091505092915050565b60006117b28284611386565b915081905092915050565b60006117c98284611477565b915081905092915050565b600060208201905081810360008301526117ee818461129c565b905092915050565b600060208201905081810360008301526118108184611311565b905092915050565b600060e0820190508181036000830152611832818a61143e565b90508181036020830152611846818961143e565b9050818103604083015261185a818861143e565b9050818103606083015261186e818761143e565b90508181036080830152611882818661143e565b905081810360a0830152611896818561143e565b905081810360c08301526118aa818461143e565b905098975050505050505050565b600060808201905081810360008301526118d2818761143e565b905081810360208301526118e681866114a8565b905081810360408301526118fa818561143e565b9050818103606083015261190e818461143e565b905095945050505050565b6000602082019050818103600083015261193281611528565b9050919050565b6000602082019050818103600083015261195281611568565b9050919050565b60006020820190508181036000830152611972816115a8565b9050919050565b60006020820190508181036000830152611992816115e8565b9050919050565b600060208201905081810360008301526119b281611628565b9050919050565b6000604051905081810181811067ffffffffffffffff821117156119e0576119df611b9c565b5b8060405250919050565b600067ffffffffffffffff821115611a0557611a04611b9c565b5b601f19601f8301169050602081019050919050565b6000819050602082019050919050565b6000819050602082019050919050565b60008190508160005260206000209050919050565b60008190508160005260206000209050919050565b600081519050919050565b600081519050919050565b600081519050919050565b6000602082019050919050565b6000602082019050919050565b600082825260208201905092915050565b600082825260208201905092915050565b600081905092915050565b600082825260208201905092915050565b600082825260208201905092915050565b600081905092915050565b82818337600083830152505050565b60005b83811015611b26578082015181840152602081019050611b0b565b83811115611b35576000848401525b50505050565b60006002820490506001821680611b5357607f821691505b60208210811415611b6757611b66611b6d565b5b50919050565b7f4e487b7100000000000000000000000000000000000000000000000000000000600052602260045260246000fd5b7f4e487b7100000000000000000000000000000000000000000000000000000000600052604160045260246000fd5b6000601f19601f830116905091905056fea2646970667358221220bb6f95c950c3c1336df097ddb56adad69e1bacc976d75b4fcf8939d479cdc8d764736f6c63430008000033",
  "immutableReferences": {},
  "source": "// SPDX-License-Identifier: MIT\r\npragma solidity ^0.8.0;\r\n\r\ncontract Users {\r\n    struct User {\r\n        string userID;\r\n        string username;\r\n        string email;\r\n        string phone;\r\n        string password;\r\n        string role;\r\n        string registeredTime;\r\n    }\r\n\r\n    struct LoginRecord {\r\n        string userID;\r\n        string email;\r\n        string password;\r\n        string loggedTime;\r\n    }\r\n\r\n    mapping(string => User) private usersByID;\r\n    mapping(string => string) private emailsToUserID; // email -> userID\r\n    mapping(string => string) private phonesToUserID; // phone -> userID\r\n    LoginRecord[] private loggedUsers;\r\n    User[] private registeredUsers;\r\n\r\n    event UserRegistered(string userID, string username, string email, string phone, string password, string role, string registeredTime);\r\n    event UserLoggedIn(string userID, string email, string password, string loggedTime);\r\n\r\n    function registerUser(\r\n        string memory _userID,\r\n        string memory _username,\r\n        string memory _email,\r\n        string memory _phone,\r\n        string memory _password,\r\n        string memory _role,\r\n        string memory _registeredTime\r\n    ) public {\r\n        require(bytes(usersByID[_userID].userID).length == 0, \"User ID already exists\");\r\n        require(bytes(emailsToUserID[_email]).length == 0, \"Email already registered\");\r\n        require(bytes(phonesToUserID[_phone]).length == 0, \"Phone number already registered\");\r\n\r\n        User memory newUser = User(_userID, _username, _email, _phone, _password, _role, _registeredTime);\r\n        usersByID[_userID] = newUser;\r\n        emailsToUserID[_email] = _userID;\r\n        phonesToUserID[_phone] = _userID;\r\n        registeredUsers.push(newUser);\r\n\r\n        emit UserRegistered(_userID, _username, _email, _phone, _password, _role, _registeredTime);\r\n    }\r\n\r\n    function loginUser(string memory _identifier, string memory _password, string memory _loggedTime) public {\r\n        string memory userId;\r\n\r\n        if (bytes(usersByID[_identifier].userID).length != 0) {\r\n            userId = _identifier; // If identifier is a valid userID\r\n        } else {\r\n            userId = emailsToUserID[_identifier]; // If identifier is an email\r\n        }\r\n\r\n        require(bytes(usersByID[userId].userID).length != 0, \"User not found\");\r\n        require(keccak256(bytes(usersByID[userId].password)) == keccak256(bytes(_password)), \"Invalid password\");\r\n\r\n        LoginRecord memory newLogin = LoginRecord(userId, usersByID[userId].email, _password, _loggedTime);\r\n        loggedUsers.push(newLogin);\r\n\r\n        emit UserLoggedIn(userId, usersByID[userId].email, _password, _loggedTime);\r\n    }\r\n\r\n    function viewRegisteredUsers() public view returns (User[] memory) {\r\n        return registeredUsers;\r\n    }\r\n\r\n    function viewLoggedUsers() public view returns (LoginRecord[] memory) {\r\n        return loggedUsers;\r\n    }\r\n}\r\n",
  "sourcePath": "D:\\TraceForensics\\contracts\\Users.sol",
  "compiler": {
    "name": "solc",
    "version": "0.8.0+commit.c7dfd78e.Emscripten.clang"
  },
  "schemaVersion": "3.4.16",
  "updatedAt": "2025-04-09T00:35:01.973Z",
  "networkType": "ethereum",
  "devdoc": {
    "kind": "dev",
    "methods": {},
    "version": 1
  },
  "userdoc": {
    "kind": "user",
    "methods": {},
    "version": 1
  }
}